:100000000C9463000C948B000C948B000C948B006C
:100010000C948B000C948B000C948B000C948B0034
:100020000C948B000C948B000C948B000C948B0024
:100030000C948B000C948B000C948B000C948B0014
:100040000C943D030C948B000C9401060C94330625
:100050000C948B000C948B000C948B000C948B00F4
:100060000C948B000C948B0000000008000201002F
:100070000003040700000000000000000102040863
:100080001020408001020408102001020408102002
:10009000040404040404040402020202020203032E
:1000A00003030303000000002300260029000000D2
:1000B0000000250028002B0000000000240027007D
:1000C0002A00E200630611241FBECFEFD8E0DEBF96
:1000D000CDBF11E0A0E0B1E0E6EFF5E102C0059090
:1000E0000D92A434B107D9F721E0A4E4B1E001C036
:1000F0001D92AD3FB207E1F710E0C6ECD0E004C0BE
:100100002297FE010E94F50AC23CD107C9F70E945E
:10011000A2080C94F90A0C94000026E040E855E28D
:1001200060E070E080E691E00E949F0567E384E470
:1001300091E00C940A018F929F92AF92BF92CF925E
:10014000DF92EF92FF9260ED77E080E090E00E9416
:10015000B60360E084E491E00E94F3024B015C018D
:1001600040E060E084E491E00E945B026B017C016E
:1001700066E071E080E691E00E94EF0622E030E068
:10018000B501A40180E691E00E948F0861E171E071
:1001900080E691E00E94EF0622E030E0B701A60180
:1001A00080E691E00E948F086FE171E080E691E0C7
:1001B000FF90EF90DF90CF90BF90AF909F908F9087
:1001C0000C94EF0626E04BE062E084E491E00C94AE
:1001D000E900DC0115966C93159716964C931697CB
:1001E00070E0FB01E458FF4FE4911796EC931797EA
:1001F000FB01E057FF4F649118966C93189740E805
:100200005EE360E070E01D964D935D936D937C938B
:10021000509708951F93CF93DF93EC01162F62E060
:100220008D810E944D040E948703605D77408109A3
:10023000910969877A878B879C871A8BDF91CF9189
:100240001F910895EF92FF920F931F93CF93DF9327
:10025000EC01EF80662311F0FE2C01C0F12CA88583
:10026000B0E0AA0FBB1FAC55BF4F80E090E0FD018E
:1002700025913491F90120812E21AC0160E070E0DC
:100280002F110FC001960D851E852F8538894017C7
:1002900051076207730758F33FEF2FEF8FEF9FEF80
:1002A00003C0382F252FCB01632F722FDF91CF9101
:1002B0001F910F91FF90EF900895CF92DF92EF92F0
:1002C000FF920F931F93CF93DF93CDB7DEB7C05448
:1002D000D1400FB6F894DEBF0FBECDBF8C01F62E15
:1002E0000E948703F11016C0F801C184D284E38410
:1002F000F4849B01AC012C193D094E095F09690189
:100300007A0130EDC31637E0D306E104F10410F4AE
:100310008189C1C0F80161877287838794871482BD
:10032000138212821182108262E085810E944D0444
:1003300061E070E080E090E00E94B60361E0F801C7
:1003400085810E944D0460E0F80185810E94860449
:10035000F80186818551823028F48CE494E00E9473
:10036000DE0306C064E170E080E090E00E94B60326
:1003700062E0F80185810E944D04F801828990E0D5
:100380000E94DE03F89460E0C8010E9422016F3FE2
:100390007F4F8F4F9F4F49F061E0C8010E942201BB
:1003A0006F3F7F4F8F4F9F4F21F4F801118A789450
:1003B00071C06E01FFEBCF1AFEEFDF0A9E012F5FC7
:1003C0003F4F790160E0C8010E942201F70160837C
:1003D00071838283938361E0C8010E942201F70147
:1003E0006483758386839783F8E0EF0EF11CEC1429
:1003F000FD0441F778949E012F5F3F4F790120E083
:1004000030E0F7014081518162817381848195815F
:10041000A681B7814F3FFFEF5F076F077F07C1F1ED
:100420008F3FEFEF9E07AE07BE0791F1F901F595FB
:10043000E795F595E795F595E795E00FF11FD080E5
:10044000DD0C481759076A077B0710F0D08203C0FC
:100450008D2D816080832F5F3F4FF8E0EF0EF11C00
:100460002832310571F6F801248130E04081818124
:1004700090E0840F911D4281840F911D4381840F70
:10048000911D99272817390719F481E0818B03C042
:10049000F801118A80E0C05CDE4F0FB6F894DEBF31
:1004A0000FBECDBFDF91CF911F910F91FF90EF90C5
:1004B000DF90CF900895CF92DF92EF92FF920F934B
:1004C0001F93CF93DF938C01C62F642F0E945D0191
:1004D000882309F47BC0F80186818C3009F447C079
:1004E00018F48B30C9F072C08551823008F06EC0AC
:1004F000F801D2816D2F6F7770E0762F66278381A8
:10050000682B80E090E00E94B4092DEC3CEC4CECB0
:100510005DE30E946A0A49C0F801628170E080E0F0
:1005200090E00E94B4096B017C01F801D381D7FFF0
:100530000AC09B01AC0160E070E080E89FEB0E9484
:10054000B2086B017C016D2F6F7070E080E090E06D
:100550000E94B6092DEC3CEC4CEC5DE30E946A0A6B
:100560009B01AC01C701B6010E94B30820C0F8018D
:10057000D2816D2F70E080E090E00E94B4096B01A1
:100580007C01F80163816F7070E080E090E00E9470
:10059000B6092DEC3CEC4CEC5DE30E946A0A9B0131
:1005A000AC01C701B6010E94B308D7FD9058CC2317
:1005B00089F026E636E646EE5FE30E946A0A20E00E
:1005C00030E040E052E40E94B30804C060E070E014
:1005D00080EC9FE7DF91CF911F910F91FF90EF90FB
:1005E000DF90CF900895CF92DF92EF92FF92CF935A
:1005F000DF93EC010E945D018823A1F18E818B3095
:1006000088F18D30A0F08551823060F5688170E00E
:10061000762F66278981682B80E090E00E94B409DC
:100620002DEC3CEC4CEC5DE30E946A0A1FC0688133
:1006300070E080E090E00E94B6096B017C01698166
:1006400070E080E090E00E94B6092DEC3CEC4CECB0
:100650005DE30E946A0A9B01AC01C701B6010E94DA
:10066000B30804C060E070E080EC9FE7DF91CF91B9
:10067000FF90EF90DF90CF9008951F920F920FB6EA
:100680000F9211242F933F938F939F93AF93BF9318
:100690008091580190915901A0915A01B0915B014C
:1006A0003091570123E0230F2D3720F40196A11D2F
:1006B000B11D05C026E8230F0296A11DB11D209390
:1006C00057018093580190935901A0935A01B09318
:1006D0005B0180915C0190915D01A0915E01B09100
:1006E0005F010196A11DB11D80935C0190935D0196
:1006F000A0935E01B0935F01BF91AF919F918F91E5
:100700003F912F910F900FBE0F901F9018952FB70C
:10071000F894609158017091590180915A0190911B
:100720005B012FBF08953FB7F89480915C019091D1
:100730005D01A0915E01B0915F0126B5A89B05C047
:100740002F3F19F00196A11DB11D3FBF6627782FDD
:10075000892F9A2F620F711D811D911D42E0660F36
:10076000771F881F991F4A95D1F70895CF92DF927E
:10077000EF92FF92CF93DF936B017C010E94930372
:10078000EB01C114D104E104F10489F00E94B10825
:100790000E9493036C1B7D0B683E734090F381E0D5
:1007A000C81AD108E108F108C851DC4FEACFDF913F
:1007B000CF91FF90EF90DF90CF9008958230910518
:1007C00038F0880F991F880F991F05970197F1F747
:1007D0000895789484B5826084BD84B5816084BDB9
:1007E00085B5826085BD85B5816085BDEEE6F0E0AA
:1007F000808181608083E1E8F0E010828081826006
:100800008083808181608083E0E8F0E08081816086
:100810008083E1EBF0E0808184608083E0EBF0E0B6
:10082000808181608083EAE7F0E08081846080835A
:100830008081826080838081816080838081806804
:1008400080831092C1000895833081F028F48130B4
:1008500099F08230A1F008958730A9F08830B9F07E
:100860008430D1F4809180008F7D03C0809180001E
:100870008F7780938000089584B58F7702C084B508
:100880008F7D84BD08958091B0008F7703C08091E3
:10089000B0008F7D8093B0000895CF93DF9390E0F8
:1008A000FC01E458FF4F2491FC01E057FF4F849175
:1008B000882349F190E0880F991FFC01E854FF4F0D
:1008C000A591B49182559F4FFC01C591D4919FB7DA
:1008D000611108C0F8948C91209582238C938881B3
:1008E00082230AC0623051F4F8948C91322F3095F3
:1008F00083238C938881822B888304C0F8948C9105
:10090000822B8C939FBFDF91CF9108950F931F93FC
:10091000CF93DF931F92CDB7DEB7282F30E0F901D8
:10092000E859FF4F8491F901E458FF4F1491F90100
:10093000E057FF4F04910023C9F0882321F0698319
:100940000E9424046981E02FF0E0EE0FFF1FE255C2
:10095000FF4FA591B4919FB7F8948C91611103C09A
:100960001095812301C0812B8C939FBF0F90DF9145
:10097000CF911F910F910895FC01818D228D90E000
:10098000805C9F4F821B91098F7399270895FC010A
:10099000918D828D981731F0828DE80FF11D858D34
:1009A00090E008958FEF9FEF0895FC01918D828D67
:1009B000981761F0828DDF01A80FB11D5D968C91B3
:1009C000928D9F5F9F73928F90E008958FEF9FEFBE
:1009D000089589E596E0892B49F080E090E0892B25
:1009E00029F00E94590681110C9400000895FC0121
:1009F000848DDF01A80FB11DA35ABF4F2C91848DA8
:100A000090E001968F739927848FA689B7892C93DC
:100A1000A089B1898C9180648C93938D848D981377
:100A200006C00288F389E02D80818F7D8083089540
:100A3000CF93DF93EC01888D8823C9F0EA89FB8985
:100A4000808185FD05C0A889B9898C9186FD0FC07C
:100A50000FB607FCF5CF808185FFF2CFA889B98951
:100A60008C9185FFEDCFCE010E94F704E7CFDF9197
:100A7000CF910895CF92DF92FF920F931F93CF9360
:100A8000DF931F92CDB7DEB76C0181E0D601589697
:100A90008C9358975B969C915B975C968C915C9736
:100AA000981307C05096ED91FC915197808185FD78
:100AB0002EC0F601038D10E00F5F1F4F0F7311273B
:100AC000F02EF601848DF81211C00FB607FCF9CF95
:100AD000D6015096ED91FC915197808185FFF1CF21
:100AE000C60169830E94F7046981EBCF838DE80F0B
:100AF000F11DE35AFF4F6083D6015B960C935B9721
:100B00005296ED91FC915397808180620CC0D60182
:100B10005696ED91FC91579760835096ED91FC911C
:100B2000519780818064808381E090E00F90DF9115
:100B3000CF911F910F91FF90DF90CF900895BF92BA
:100B4000CF92DF92EF92FF92CF93DF93EC016A0195
:100B50007B01B22EE889F98982E08083411581EE1C
:100B6000580761057105A1F060E079E08DE390E040
:100B7000A70196010E94D10A21503109410951096A
:100B80005695479537952795211580E1380798F0B8
:100B9000E889F989108260E874E88EE190E0A701A5
:100BA00096010E94D10A21503109410951095695F7
:100BB000479537952795EC85FD853083EE85FF8534
:100BC0002083188EEC89FD89B082EA89FB898081B7
:100BD00080618083EA89FB89808188608083EA89DB
:100BE000FB89808180688083EA89FB8980818F7D91
:100BF0008083DF91CF91FF90EF90DF90CF90BF90F7
:100C000008951F920F920FB60F9211242F938F9376
:100C10009F93EF93FF93E0917001F09171018081B8
:100C2000E0917601F091770182FD12C09081809170
:100C300079018F5F8F7320917A01821751F0E091D3
:100C40007901F0E0E05AFE4F958F8093790101C061
:100C50008081FF91EF919F918F912F910F900FBE07
:100C60000F901F9018951F920F920FB60F9211249C
:100C70002F933F934F935F936F937F938F939F93A4
:100C8000AF93BF93EF93FF9380E691E00E94F70448
:100C9000FF91EF91BF91AF919F918F917F916F9154
:100CA0005F914F913F912F910F900FBE0F901F902A
:100CB000189580E691E00E94BC0421E0892B09F49C
:100CC00020E0822F0895109263011092620188EE55
:100CD00093E0A0E0B0E08093640190936501A0935D
:100CE0006601B093670187E291E090936101809380
:100CF000600185EC90E090936D0180936C0184EC31
:100D000090E090936F0180936E0180EC90E090935F
:100D100071018093700181EC90E090937301809356
:100D2000720182EC90E0909375018093740186ECDF
:100D300090E0909377018093760110927901109260
:100D40007A0110927B0110927C010895CF92DF927C
:100D5000EF92FF920F931F93CF93DF937C016A0171
:100D6000EB0100E010E00C151D0571F06991D70151
:100D7000ED91FC910190F081E02DC7010995892B3F
:100D800019F00F5F1F4FEFCFC801DF91CF911F9177
:100D90000F91FF90EF90DF90CF900895611571054E
:100DA00081F0DB010D900020E9F7AD0141505109C0
:100DB000461B570BDC01ED91FC910280F381E02D85
:100DC000099480E090E00895DC01ED91FC910190A0
:100DD000F081E02D099463E371E00C94CE060F934B
:100DE0001F93CF93DF93EC010E94CE068C01CE01BE
:100DF0000E94EB06800F911FDF91CF911F910F9101
:100E000008958F929F92AF92BF92CF92DF92EF920E
:100E1000FF920F931F93CF93DF93CDB7DEB7A197C8
:100E20000FB6F894DEBF0FBECDBF7C01C42EE52FF8
:100E3000CB01D22E19A221E02D1510F02AE0D22EDE
:100E40008E010F5D1F4F8D2C912CA12CB12C6C2D80
:100E50007E2FA50194010E94D10A8C2DD29E80196B
:100E60001124015011098A3014F4805D01C0895C9D
:100E7000F8018083211531054105510521F0C22E6D
:100E8000E32FCA01E4CFB801C7010E94CE06A196A4
:100E90000FB6F894DEBF0FBECDBFDF91CF911F918B
:100EA0000F91FF90EF90DF90CF90BF90AF909F9009
:100EB0008F900895CF92DF92EF92FF920F931F933E
:100EC000CF93DF93EC016A017B012115310579F4A1
:100ED000E881F9810190F081E02D642FDF91CF91BD
:100EE0001F910F91FF90EF90DF90CF9009942A30DF
:100EF0003105E9F477FF1AC06DE20E94E4068C0127
:100F000044275527BA014C195D096E097F092AE06B
:100F1000CE010E940107800F911FDF91CF911F9199
:100F20000F91FF90EF90DF90CF9008952AE0B701E6
:100F3000A601CE01DF91CF911F910F91FF90EF900D
:100F4000DF90CF900C9401074F925F926F927F9247
:100F50008F929F92AF92BF92CF92DF92EF92FF92C9
:100F60000F931F93CF93DF93EC016A017B01B22EA5
:100F70009A01AB01C701B6010E94CD0A882319F07E
:100F800066E371E027C026013701E89477F82FEF78
:100F90003FEF4FE75FE7C301B2010E94CD0A811125
:100FA0000DC02FEF3FEF4FE75FE7C301B2010E9493
:100FB000170918161CF46AE371E00CC02FEF3FEF1D
:100FC0004FE75FE4C701B6010E94660A1816ACF449
:100FD0006EE371E0CE01DF91CF911F910F91FF90F1
:100FE000EF90DF90CF90BF90AF909F908F907F90C9
:100FF0006F905F904F900C94CE062FEF3FEF4FE72E
:101000005FECC701B6010E94170987FDE1CF20E020
:1010100030E0A901C701B6010E94170987FF0AC085
:101020006DE2CE010E94E4068C01F7FAF094F7F825
:10103000F09402C000E010E0A12C60E070E080E0DD
:101040009FE3AB1441F020E030E040E251E40E9425
:101050001B09A394F6CF9B01AC01C701B6010E9406
:10106000B3086B017C010E9488092B013C010E949E
:10107000B4099B01AC01C701B6010E94B2086B0123
:101080007C012AE0B301A201CE010E940107080FF2
:10109000191FBB2039F062E471E0CE010E94CE0638
:1010A000080F191F7B2C772041F120E030E040E24F
:1010B00051E4C701B6010E946A0A6B017C010E94DB
:1010C00083094B01AA2497FCA094BA2C2AE030E0B3
:1010D000B501A401CE010E945A07080F191FC501CE
:1010E000B4010E94B6099B01AC01C701B6010E9480
:1010F000B2086B017C017A94D6CFC801DF91CF9101
:101100001F910F91FF90EF90DF90CF90BF90AF9025
:101110009F908F907F906F905F904F9008950F9366
:101120001F93CF93DF93EC010E94A4078C01CE01A3
:101130000E94EB06800F911FDF91CF911F910F91BD
:10114000089508950E94E9030E94A1080E948D005D
:10115000C9EED4E00E949B002097E1F30E94E904CD
:10116000F9CF08955058BB27AA270ED075C166D174
:1011700030F06BD120F031F49F3F11F41EF45BC1CD
:101180000EF4E095E7FB51C1E92F77D180F3BA1750
:10119000620773078407950718F071F49EF58FC1F5
:1011A0000EF4E0950B2EBA2FA02D0B01B901900182
:1011B0000C01CA01A0011124FF27591B99F0593FC6
:1011C00050F4503E68F11A16F040A22F232F342F0E
:1011D0004427585FF3CF469537952795A795F0405C
:1011E0005395C9F77EF41F16BA0B620B730B840B71
:1011F000BAF09150A1F0FF0FBB1F661F771F881F29
:10120000C2F70EC0BA0F621F731F841F48F4879580
:1012100077956795B795F7959E3F08F0B3CF93956F
:10122000880F08F09927EE0F979587950895D9D0E4
:1012300008F481E008950CD00FC107D140F0FED032
:1012400030F021F45F3F19F0F0C0511139C1F3C003
:1012500014D198F39923C9F35523B1F3951B550B7A
:10126000BB27AA2762177307840738F09F5F5F4F79
:10127000220F331F441FAA1FA9F333D00E2E3AF0BA
:10128000E0E830D091505040E695001CCAF729D0D4
:10129000FE2F27D0660F771F881FBB1F2617370723
:1012A0004807AB07B0E809F0BB0B802DBF01FF2753
:1012B00093585F4F2AF09E3F510568F0B6C000C1B9
:1012C0005F3FECF3983EDCF3869577956795B7958D
:1012D000F7959F5FC9F7880F911D9695879597F9A8
:1012E0000895E1E0660F771F881FBB1F6217730721
:1012F0008407BA0720F0621B730B840BBA0BEE1F36
:1013000088F7E095089504D06894B111D9C0089584
:10131000BCD088F09F5790F0B92F9927B751A0F013
:10132000D1F0660F771F881F991F1AF0BA95C9F779
:1013300012C0B13081F0C3D0B1E00895C0C0672FB2
:10134000782F8827B85F39F0B93FCCF38695779529
:101350006795B395D9F73EF4909580957095619512
:101360007F4F8F4F9F4F0895E89409C097FB3EF43D
:1013700090958095709561957F4F8F4F9F4F9923E2
:10138000A9F0F92F96E9BB279395F6958795779560
:101390006795B795F111F8CFFAF4BB0F11F460FF20
:1013A0001BC06F5F7F4F8F4F9F4F16C0882311F078
:1013B00096E911C0772321F09EE8872F762F05C08C
:1013C000662371F096E8862F70E060E02AF09A9527
:1013D000660F771F881FDAF7880F9695879597F91C
:1013E0000895990F0008550FAA0BE0E8FEEF1616B6
:1013F0001706E807F907C0F012161306E407F50709
:1014000098F0621B730B840B950B39F40A2661F07C
:10141000232B242B252B21F408950A2609F4A1401F
:10142000A6958FEF811D811D089597F99F6780E82C
:1014300070E060E008959FEF80EC089500240A9426
:101440001616170618060906089500240A9412169F
:101450001306140605060895092E0394000C11F4D2
:10146000882352F0BB0F40F4BF2B11F460FF04C07F
:101470006F5F7F4F8F4F9F4F089557FD9058440FD8
:10148000551F59F05F3F71F04795880F97FB991FE3
:1014900061F09F3F79F087950895121613061406A0
:1014A000551FF2CF4695F1DF08C01616170618062D
:1014B000991FF1CF86957105610508940895E89408
:1014C000BB2766277727CB0197F908958ADF08F4B1
:1014D0008FEF08950BD0C0CFB1DF28F0B6DF18F042
:1014E000952309F0A2CFA7CF1124EACFC6DFA0F33E
:1014F000959FD1F3950F50E0551F629FF001729FA9
:10150000BB27F00DB11D639FAA27F00DB11DAA1FC7
:10151000649F6627B00DA11D661F829F2227B00D14
:10152000A11D621F739FB00DA11D621F839FA00D9F
:10153000611D221F749F3327A00D611D231F849FEF
:10154000600D211D822F762F6A2F11249F57504046
:101550008AF0E1F088234AF0EE0FFF1FBB1F661FE1
:10156000771F881F91505040A9F79E3F510570F09A
:101570005CCFA6CF5F3FECF3983EDCF38695779582
:101580006795B795F795E7959F5FC1F7FE2B880F95
:10159000911D9695879597F9089523DF880B990BF0
:1015A0000895A1E21A2EAA1BBB1BFD010DC0AA1FA4
:1015B000BB1FEE1FFF1FA217B307E407F50720F0BC
:1015C000A21BB30BE40BF50B661F771F881F991F37
:1015D0001A9469F760957095809590959B01AC0180
:1015E000BD01CF010895EE0FFF1F0590F491E02D8E
:0615F0000994F894FFCFFE
:1015F6000000FD01800048756D69646974793D20BD
:101606000054656D70657261747572653D2000C227
:10161600B04300000000003A05A606BC04D504C786
:101626000418050D0A006E616E00696E66006F761D
:0416360066002E001C
:107E0000112484B714BE81FFF0D085E080938100F7
:107E100082E08093C00088E18093C10086E0809377
:107E2000C20080E18093C4008EE0C9D0259A86E02C
:107E300020E33CEF91E0309385002093840096BBD3
:107E4000B09BFECF1D9AA8958150A9F7CC24DD24C4
:107E500088248394B5E0AB2EA1E19A2EF3E0BF2EE7
:107E6000A2D0813461F49FD0082FAFD0023811F036
:107E7000013811F484E001C083E08DD089C08234E0
:107E800011F484E103C0853419F485E0A6D080C0E4
:107E9000853579F488D0E82EFF2485D0082F10E0AE
:107EA000102F00270E291F29000F111F8ED06801E7
:107EB0006FC0863521F484E090D080E0DECF843638
:107EC00009F040C070D06FD0082F6DD080E0C81688
:107ED00080E7D80618F4F601B7BEE895C0E0D1E017
:107EE00062D089930C17E1F7F0E0CF16F0E7DF06D8
:107EF00018F0F601B7BEE89568D007B600FCFDCFD4
:107F0000A601A0E0B1E02C9130E011968C91119780
:107F100090E0982F8827822B932B1296FA010C0160
:107F200087BEE89511244E5F5F4FF1E0A038BF0790
:107F300051F7F601A7BEE89507B600FCFDCF97BE46
:107F4000E89526C08437B1F42ED02DD0F82E2BD052
:107F50003CD0F601EF2C8F010F5F1F4F84911BD097
:107F6000EA94F801C1F70894C11CD11CFA94CF0C13
:107F7000D11C0EC0853739F428D08EE10CD085E9AC
:107F80000AD08FE07ACF813511F488E018D01DD067
:107F900080E101D065CF982F8091C00085FFFCCF94
:107FA0009093C60008958091C00087FFFCCF809118
:107FB000C00084FD01C0A8958091C6000895E0E648
:107FC000F0E098E1908380830895EDDF803219F02E
:107FD00088E0F5DFFFCF84E1DECF1F93182FE3DFCA
:107FE0001150E9F7F2DF1F91089580E0E8DFEE27F6
:047FF000FF270994CA
:027FFE00040479
:0400000300007E007B
:00000001FF
