:100000000C945D000C9485000C9485000C94850084
:100010000C9485000C9485000C9485000C9485004C
:100020000C9485000C9485000C9485000C9485003C
:100030000C9485000C9485000C9485000C9485002C
:100040000C9432020C9485000C9485000C9485006D
:100050000C9485000C9485000C9485000C9485000C
:100060000C9485000C94850000000008000201003B
:100070000003040700000000000000000102040863
:100080001020408001020408102001020408102002
:10009000040404040404040402020202020203032E
:1000A0000303030300000000250028002B000000CC
:1000B0000000240027002A00A50011241FBECFEF56
:1000C000D8E0DEBFCDBF11E0A0E0B1E0EAEBF8E0A0
:1000D00002C005900D92A031B107D9F721E0A0E14F
:1000E000B1E001C01D92A133B207E1F710E0CAEB05
:1000F000D0E004C02297FE010E945704C83BD107FC
:10010000C9F70E9445040C945B040C94000020E0A5
:1001100042E060E180E191E00E946E0140E060E039
:1001200080E191E00E94540160E071E080E191E0A3
:100130000E94420461E070E089E00C940D036AE0E3
:1001400070E080E090E00C949F02CF92EF920F93CA
:1001500082E0C82E93E0E92E04E025E04BE06CE05D
:1001600080E191E00E940C020F91EF90CF900895F2
:10017000CF93DF93EC0160E08E810E94CE0381E09B
:1001800090E00E94C70261E08E810E94CE0381E070
:1001900090E00E94C70260E08E810E94CE0384E658
:1001A00090E0DF91CF910C94C702EF92FF920F93F2
:1001B0001F93CF93DF938C01C0E0D0E0E62EF12CAB
:1001C000B7010C2E02C0759567950A94E2F761702D
:1001D000F801EC0FFD1F87810E94CE032196C430E9
:1001E000D10571F7C801DF91CF911F910F91FF9059
:1001F000EF900C94B800EF92FF920F931F93CF9360
:10020000DF938C01C0E0D0E0E62EF12CB7010C2E7C
:1002100002C0759567950A94E2F76170F801EC0FDA
:10022000FD1F87810E94CE032196C830D10571F74A
:10023000C801DF91CF911F910F91FF90EF900C9427
:10024000B8001F93CF93DF93EC01162F642F8C819E
:100250000E94CE038D818F3F19F060E00E94CE0393
:100260008F85612F84FF06C0CE01DF91CF911F9152
:100270000C94FB0070E084E0759567958A95E1F732
:10028000CE010E94D500612FCE01DF91CF911F9149
:100290000C94D50040E00C94210161E00E944A01D9
:1002A00080ED97E00C94C702443008F043E0FC0175
:1002B0002389421710F04FEF420FFC01E40FF11DAC
:1002C0002489260F2068622F0C944A01FC01608962
:1002D000262F2460208B6C600C944A010F931F938F
:1002E000CF93DF93EC01423018F08F8588608F87C1
:1002F0004B8B1C8A80E48D8B6E8B70E0605C7F4F33
:100300006F8B222329F0413019F48F8584608F8709
:1003100061E08C810E9495038D818F3F19F061E02F
:100320000E94950361E08E810E94950300E010E039
:100330008F8584FF03C088E090E002C084E090E0F5
:100340000817190754F4FE01E00FF11F61E08781DF
:100350000E9495030F5F1F4FEBCF80E593EC0E9447
:10036000C70260E08C810E94CE0360E08E810E9413
:10037000CE038D818F3F19F060E00E94CE036F8520
:1003800064FD1DC063E0CE010E94D50084E991E1C7
:100390000E94C70263E0CE010E94D50084E991E18A
:1003A0000E94C70263E0CE010E94D50086E990E07A
:1003B0000E94C70262E0CE010E94D50016C06062B2
:1003C000CE010E944A0184E991E10E94C7026F8533
:1003D0006062CE010E944A0186E990E00E94C70255
:1003E0006F856062CE010E944A016F856062CE0116
:1003F0000E944A0184E0888BCE010E946601CE01F2
:100400000E944D0182E0898B66E0CE01DF91CF91A1
:100410001F910F910C944A01CF92EF920F93FC0120
:10042000138212828CE091E09183808364838FEF4A
:100430008583468327830087E186C28613861486D8
:1004400015861686178620E041E060E1CF010F9106
:10045000EF90CF900C946E0141E00E94210181E069
:1004600090E008951F920F920FB60F9211242F93D0
:100470003F938F939F93AF93BF9380912901909166
:100480002A01A0912B01B0912C013091280123E089
:10049000230F2D3720F40196A11DB11D05C026E8BC
:1004A000230F0296A11DB11D2093280180932901DD
:1004B00090932A01A0932B01B0932C0180912D01E0
:1004C00090912E01A0912F01B09130010196A11DB4
:1004D000B11D80932D0190932E01A0932F01B09315
:1004E0003001BF91AF919F918F913F912F910F90CC
:1004F0000FBE0F901F9018953FB7F89480912D0173
:1005000090912E01A0912F01B091300126B5A89BAA
:1005100005C02F3F19F00196A11DB11D3FBF6627F1
:10052000782F892F9A2F620F711D811D911D42E036
:10053000660F771F881F991F4A95D1F70895CF92AC
:10054000DF92EF92FF92CF93DF936B017C010E94C9
:100550007C02EB01C114D104E104F10489F00E9492
:1005600054040E947C026C1B7D0B683E734090F328
:1005700081E0C81AD108E108F108C851DC4FEACF80
:10058000DF91CF91FF90EF90DF90CF900895823070
:10059000910538F0880F991F880F991F05970197CB
:1005A000F1F70895789484B5826084BD84B5816044
:1005B00084BD85B5826085BD85B5816085BDEEE66B
:1005C000F0E0808181608083E1E8F0E0108280814A
:1005D00082608083808181608083E0E8F0E08081B8
:1005E00081608083E1EBF0E0808184608083E0EBD8
:1005F000F0E0808181608083EAE7F0E080818460C0
:10060000808380818260808380818160808380811B
:10061000806880831092C10008951F93CF93DF9369
:10062000182FEB0161E00E949503209711F460E020
:1006300004C0CF3FD10539F461E0812FDF91CF9124
:100640001F910C94CE03E12FF0E0E859FF4FE491A5
:10065000E330F9F048F4E130B9F0E230A1F584B5C7
:10066000806284BDC8BD34C0E730E9F0E83019F1DC
:10067000E43049F580918000806280938000D093BF
:100680008B00C0938A0024C084B5806884BDC7BD38
:100690001FC080918000806880938000D093890083
:1006A000C093880015C08091B00080688093B0002E
:1006B000C093B3000DC08091B00080628093B00001
:1006C000C093B40005C0C038D1050CF0B5CFAFCF92
:1006D000DF91CF911F910895833081F028F481300C
:1006E00099F08230A1F008958730A9F08830B9F0F0
:1006F0008430D1F4809180008F7D03C08091800090
:100700008F7780938000089584B58F7702C084B579
:100710008F7D84BD08958091B0008F7703C0809154
:10072000B0008F7D8093B0000895CF93DF9390E069
:10073000FC01E458FF4F2491FC01E057FF4F8491E6
:10074000882349F190E0880F991FFC01E255FF4F83
:10075000A591B4918C559F4FFC01C591D4919FB741
:10076000611108C0F8948C91209582238C93888124
:1007700082230AC0623051F4F8948C91322F309564
:1007800083238C938881822B888304C0F8948C9176
:10079000822B8C939FBFDF91CF9108950F931F936E
:1007A000CF93DF931F92CDB7DEB7282F30E0F9014A
:1007B000E859FF4F8491F901E458FF4F1491F90172
:1007C000E057FF4F04910023C9F0882321F069838B
:1007D0000E946C036981E02FF0E0EE0FFF1FEC55E3
:1007E000FF4FA591B4919FB7F8948C91611103C00C
:1007F0001095812301C0812B8C939FBF0F90DF91B7
:10080000CF911F910F910895CF92DF92EF92FF92B7
:100810000F931F93CF93DF937C016A01EB0100E0FC
:1008200010E00C151D0571F06991D701ED91FC9157
:100830000190F081E02DC7010995892B19F00F5F18
:100840001F4FEFCFC801DF91CF911F910F91FF9004
:10085000EF90DF90CF9008956115710581F0DB0175
:100860000D900020E9F7AD0141505109461B570B8F
:10087000DC01ED91FC910280F381E02D099480E090
:1008800090E008950C942C0408950E94D2020E94D6
:1008900044040E948700C0E0D0E00E949F0020979F
:1008A000E1F30E940000F9CF0895EE0FFF1F0590BD
:0A08B000F491E02D0994F894FFCFB5
:1008BA00496B757A6F212100000000002C020404A4
:107E0000112484B714BE81FFF0D085E080938100F7
:107E100082E08093C00088E18093C10086E0809377
:107E2000C20080E18093C4008EE0C9D0259A86E02C
:107E300020E33CEF91E0309385002093840096BBD3
:107E4000B09BFECF1D9AA8958150A9F7CC24DD24C4
:107E500088248394B5E0AB2EA1E19A2EF3E0BF2EE7
:107E6000A2D0813461F49FD0082FAFD0023811F036
:107E7000013811F484E001C083E08DD089C08234E0
:107E800011F484E103C0853419F485E0A6D080C0E4
:107E9000853579F488D0E82EFF2485D0082F10E0AE
:107EA000102F00270E291F29000F111F8ED06801E7
:107EB0006FC0863521F484E090D080E0DECF843638
:107EC00009F040C070D06FD0082F6DD080E0C81688
:107ED00080E7D80618F4F601B7BEE895C0E0D1E017
:107EE00062D089930C17E1F7F0E0CF16F0E7DF06D8
:107EF00018F0F601B7BEE89568D007B600FCFDCFD4
:107F0000A601A0E0B1E02C9130E011968C91119780
:107F100090E0982F8827822B932B1296FA010C0160
:107F200087BEE89511244E5F5F4FF1E0A038BF0790
:107F300051F7F601A7BEE89507B600FCFDCF97BE46
:107F4000E89526C08437B1F42ED02DD0F82E2BD052
:107F50003CD0F601EF2C8F010F5F1F4F84911BD097
:107F6000EA94F801C1F70894C11CD11CFA94CF0C13
:107F7000D11C0EC0853739F428D08EE10CD085E9AC
:107F80000AD08FE07ACF813511F488E018D01DD067
:107F900080E101D065CF982F8091C00085FFFCCF94
:107FA0009093C60008958091C00087FFFCCF809118
:107FB000C00084FD01C0A8958091C6000895E0E648
:107FC000F0E098E1908380830895EDDF803219F02E
:107FD00088E0F5DFFFCF84E1DECF1F93182FE3DFCA
:107FE0001150E9F7F2DF1F91089580E0E8DFEE27F6
:047FF000FF270994CA
:027FFE00040479
:0400000300007E007B
:00000001FF
