:100000000C945D000C9485000C9485000C94850084
:100010000C9485000C9485000C9485000C9485004C
:100020000C9485000C9485000C9485000C9485003C
:100030000C9485000C9485000C9485000C9485002C
:100040000C9428020C9485000C9485000C94850077
:100050000C9485000C9485000C9485000C9485000C
:100060000C9485000C94850000000008000201003B
:100070000003040700000000000000000102040863
:100080001020408001020408102001020408102002
:10009000040404040404040402020202020203032E
:1000A0000303030300000000250028002B000000CC
:1000B0000000240027002A009B0011241FBECFEF60
:1000C000D8E0DEBFCDBF11E0A0E0B1E0E0E5F7E0B1
:1000D00002C005900D92A831B107D9F721E0A8E13F
:1000E000B1E001C01D92A933B207E1F710E0CAEBFD
:1000F000D0E004C02297FE010E94A203C83BD107B2
:10010000C9F70E9491030C94A6030C94000020E010
:1001100042E060E188E191E00E94640140E060E03B
:1001200088E191E00E944A0160E071E088E191E09D
:100130000C948E030895CF92EF920F9382E0C82E15
:1001400093E0E92E04E025E04BE06CE088E191E0EB
:100150000E9402020F91EF90CF900895CF93DF930A
:10016000EC0160E08E810E941A0381E090E00E9421
:10017000720261E08E810E941A0381E090E00E9489
:10018000720260E08E810E941A0384E690E0DF91A3
:10019000CF910C947202EF92FF920F931F93CF9323
:1001A000DF938C01C0E0D0E0E62EF12CB7010C2EDD
:1001B00002C0759567950A94E2F76170F801EC0F3B
:1001C000FD1F87810E941A032196C430D10571F763
:1001D000C801DF91CF911F910F91FF90EF900C9488
:1001E000AE00EF92FF920F931F93CF93DF938C019A
:1001F000C0E0D0E0E62EF12CB7010C2E02C07595C0
:1002000067950A94E2F76170F801EC0FFD1F878192
:100210000E941A032196C830D10571F7C801DF91F9
:10022000CF911F910F91FF90EF900C94AE001F9310
:10023000CF93DF93EC01162F642F8C810E941A0359
:100240008D818F3F19F060E00E941A038F85612F26
:1002500084FF06C0CE01DF91CF911F910C94F10075
:1002600070E084E0759567958A95E1F7CE010E946C
:10027000CB00612FCE01DF91CF911F910C94CB0069
:1002800040E00C94170161E00E94400180ED97E08E
:100290000C947202443008F043E0FC0123894217B9
:1002A00010F04FEF420FFC01E40FF11D2489260FDF
:1002B0002068622F0C944001FC016089262F246085
:1002C000208B6C600C9440010F931F93CF93DF93AE
:1002D000EC01423018F08F8588608F874B8B1C8A29
:1002E00080E48D8B6E8B70E0605C7F4F6F8B222380
:1002F00029F0413019F48F8584608F8761E08C810B
:100300000E94E1028D818F3F19F061E00E94E102BD
:1003100061E08E810E94E10200E010E08F8584FFA1
:1003200003C088E090E002C084E090E0081719075D
:1003300054F4FE01E00FF11F61E087810E94E102A9
:100340000F5F1F4FEBCF80E593EC0E94720260E0DD
:100350008C810E941A0360E08E810E941A038D81B5
:100360008F3F19F060E00E941A036F8564FD1DC085
:1003700063E0CE010E94CB0084E991E10E94720209
:1003800063E0CE010E94CB0084E991E10E947202F9
:1003900063E0CE010E94CB0086E990E00E947202E9
:1003A00062E0CE010E94CB0016C06062CE010E94C6
:1003B000400184E991E10E9472026F856062CE0182
:1003C0000E94400186E990E00E9472026F8560629F
:1003D000CE010E9440016F856062CE010E94400103
:1003E00084E0888BCE010E945C01CE010E94430113
:1003F00082E0898B66E0CE01DF91CF911F910F9152
:100400000C944001CF92EF920F93FC011382128261
:1004100084E191E09183808364838FEF85834683B9
:1004200027830087E186C286138614861586168682
:10043000178620E041E060E1CF010F91EF90CF906F
:100440000C94640141E00E94170181E090E008955E
:100450001F920F920FB60F9211242F933F938F93F9
:100460009F93AF93BF938091310190913201A091FE
:100470003301B09134013091300123E0230F2D3747
:1004800020F40196A11DB11D05C026E8230F029698
:10049000A11DB11D20933001809331019093320151
:1004A000A0933301B09334018091350190913601CE
:1004B000A0913701B09138010196A11DB11D809323
:1004C000350190933601A0933701B0933801BF9165
:1004D000AF919F918F913F912F910F900FBE0F90F1
:1004E0001F9018958230910538F0880F991F880F5A
:1004F000991F05970197F1F70895789484B5826064
:1005000084BD84B5816084BD85B5826085BD85B5B7
:10051000816085BDEEE6F0E0808181608083E1E866
:10052000F0E010828081826080838081816080839E
:10053000E0E8F0E0808181608083E1EBF0E08081A1
:1005400084608083E0EBF0E0808181608083EAE773
:10055000F0E08081846080838081826080838081FC
:10056000816080838081806880831092C1000895BB
:10057000833081F028F4813099F08230A1F0089521
:100580008730A9F08830B9F08430D1F480918000B0
:100590008F7D03C0809180008F77809380000895C5
:1005A00084B58F7702C084B58F7D84BD0895809116
:1005B000B0008F7703C08091B0008F7D8093B00032
:1005C0000895CF93DF9390E0FC01E458FF4F24910E
:1005D000FC01E057FF4F8491882349F190E0880F98
:1005E000991FFC01E255FF4FA591B4918C559F4F87
:1005F000FC01C591D4919FB7611108C0F8948C910A
:10060000209582238C93888182230AC0623051F422
:10061000F8948C91322F309583238C938881822B90
:10062000888304C0F8948C91822B8C939FBFDF91B8
:10063000CF9108950F931F93CF93DF931F92CDB760
:10064000DEB7282F30E0F901E859FF4F8491F90116
:10065000E458FF4F1491F901E057FF4F0491002334
:10066000C9F0882321F069830E94B8026981E02FD4
:10067000F0E0EE0FFF1FEC55FF4FA591B4919FB72F
:10068000F8948C91611103C01095812301C0812BD6
:100690008C939FBF0F90DF91CF911F910F91089581
:1006A000CF92DF92EF92FF920F931F93CF93DF933E
:1006B0007C016A01EB0100E010E00C151D0571F0F2
:1006C0006991D701ED91FC910190F081E02DC70176
:1006D0000995892B19F00F5F1F4FEFCFC801DF91EC
:1006E000CF911F910F91FF90EF90DF90CF900895E1
:1006F0006115710581F0DB010D900020E9F7AD0176
:1007000041505109461B570BDC01ED91FC910280D1
:10071000F381E02D099480E090E008950C94780333
:1007200008950E947D020E9490030E948700C0E00D
:10073000D0E00E949A002097E1F30E940000F9CFD8
:10074000EE0FFF1F0590F491E02D0994F894FFCF70
:10075000666972737420566F6C746D65746572008F
:0807600000000000220250031A
:00000001FF
