:100000000C9462000C948A000C948A000C948A0070
:100010000C948A000C948A000C948A000C948A0038
:100020000C948A000C948A000C948A000C948A0028
:100030000C948A000C948A000C948A000C948A0018
:100040000C9491020C948A000C948A000C948A00FF
:100050000C948A000C948A000C948A000C948A00F8
:100060000C948A000C948A00000000080002010031
:100070000003040700000000000000000102040863
:100080001020408001020408102001020408102002
:10009000040404040404040402020202020203032E
:1000A00003030303000000002300260029000000D2
:1000B0000000250028002B0000000000240027007D
:1000C0002A00040111241FBECFEFD8E0DEBFCDBF50
:1000D00011E0A0E0B1E0E6EFF0E102C005900D9282
:1000E000A034B107D9F721E0A0E4B1E001C01D922E
:1000F000A336B207E1F710E0C4ECD0E004C02297C9
:10010000FE010E947508C23CD107C9F70E94220671
:100110000C9479080C94000020E042E060E180E457
:1001200091E00E94CD0140E060E080E491E00E9417
:10013000B30161E083E00E94B20360E082E00C94CE
:10014000B203CF93DF9382E00E9421049093590180
:1001500080935801019709F04DC061E083E00E944F
:10016000EB0361E071E080E491E00E94880464EFB9
:1001700071E080E090E00E94FE0260E08EE00E946C
:10018000B2038EE00E946C03EC0164E670E080E054
:1001900090E00E94FE0241E062E080E491E00E9473
:1001A000B30162E171E080E491E00E948804BE0145
:1001B000882777FD8095982F0E94360720E030E051
:1001C00040EA50E40E94EA0720E030E040E85AE3C9
:1001D0000E94EA07AB01BC0122E030E080E491E03C
:1001E0000E941F0666E171E080E491E0DF91CF910B
:1001F0000C94880460E083E00E94EB0380E491E0CB
:10020000DF91CF910C94AC01CF92EF920F9384E0E9
:10021000C82E95E0E92E06E027E048E069E080E49A
:1002200091E00E946B020F91EF90CF900895CF93D1
:10023000DF93EC0160E08E810E94EB0381E090E0AF
:100240000E94260361E08E810E94EB0381E090E032
:100250000E94260360E08E810E94EB0384E690E01A
:10026000DF91CF910C942603EF92FF920F931F938F
:10027000CF93DF938C01C0E0D0E0E62EF12CB701E4
:100280000C2E02C0759567950A94E2F76170F8012B
:10029000EC0FFD1F87810E94EB032196C430D1052E
:1002A00071F7C801DF91CF911F910F91FF90EF90EF
:1002B0000C941701EF92FF920F931F93CF93DF934C
:1002C0008C01C0E0D0E0E62EF12CB7010C2E02C06C
:1002D000759567950A94E2F76170F801EC0FFD1FC0
:1002E00087810E94EB032196C830D10571F7C801C0
:1002F000DF91CF911F910F91FF90EF900C94170118
:100300001F93CF93DF93EC01162F642F8C810E94F3
:10031000EB038D818F3F19F060E00E94EB038F8526
:10032000612F84FF06C0CE01DF91CF911F910C9405
:100330005A0170E084E0759567958A95E1F7CE01E2
:100340000E943401612FCE01DF91CF911F910C9457
:10035000340140E00C94800161E00E94A90180ED2D
:1003600097E00C942603443008F043E0FC01238915
:10037000421710F04FEF420FFC01E40FF11D2489EA
:10038000260F2068622F0C94A901FC016089262F9A
:100390002460208B6C600C94A9010F931F93CF9362
:1003A000DF93EC01423018F08F8588608F874B8B8C
:1003B0001C8A80E48D8B6E8B70E0605C7F4F6F8B4E
:1003C000222329F0413019F48F8584608F8761E002
:1003D0008C810E94B2038D818F3F19F061E00E94F1
:1003E000B20361E08E810E94B20300E010E08F85CD
:1003F00084FF03C088E090E002C084E090E008172A
:10040000190754F4FE01E00FF11F61E087810E949B
:10041000B2030F5F1F4FEBCF80E593EC0E942603E2
:1004200060E08C810E94EB0360E08E810E94EB0310
:100430008D818F3F19F060E00E94EB036F8564FDB2
:100440001DC063E0CE010E94340184E991E10E9465
:10045000260363E0CE010E94340184E991E10E9409
:10046000260363E0CE010E94340186E990E00E94F9
:10047000260362E0CE010E94340116C06062CE0104
:100480000E94A90184E991E10E9426036F856062C0
:10049000CE010E94A90186E990E00E9426036F85A3
:1004A0006062CE010E94A9016F856062CE010E9448
:1004B000A90184E0888BCE010E94C501CE010E9473
:1004C000AC0182E0898B66E0CE01DF91CF911F9174
:1004D0000F910C94A901CF92EF920F93FC0113821C
:1004E00012828AE291E09183808364838FEF858317
:1004F000468327830087E186C28613861486158685
:100500001686178620E041E060E1CF010F91EF9061
:10051000CF900C94CD0141E00E94800181E090E0F9
:1005200008951F920F920FB60F9211242F933F93AD
:100530008F939F93AF93BF9380915B0190915C01E8
:10054000A0915D01B0915E0130915A0123E0230F2B
:100550002D3720F40196A11DB11D05C026E8230FFB
:100560000296A11DB11D20935A0180935B019093C7
:100570005C01A0935D01B0935E0180915F01909159
:100580006001A0916101B09162010196A11DB11DB0
:1005900080935F0190936001A0936101B093620129
:1005A000BF91AF919F918F913F912F910F900FBE6F
:1005B0000F901F9018953FB7F89480915F0190912C
:1005C0006001A0916101B091620126B5A89B05C0B0
:1005D0002F3F19F00196A11DB11D3FBF6627782F4F
:1005E000892F9A2F620F711D811D911D42E0660FA8
:1005F000771F881F991F4A95D1F70895CF92DF92F0
:10060000EF92FF92CF93DF936B017C010E94DB029C
:10061000EB01C114D104E104F10489F00E94310618
:100620000E94DB026C1B7D0B683E734090F381E0FF
:10063000C81AD108E108F108C851DC4FEACFDF91B0
:10064000CF91FF90EF90DF90CF9008958230910589
:1006500038F0880F991F880F991F05970197F1F7B8
:100660000895789484B5826084BD84B5816084BD2A
:1006700085B5826085BD85B5816085BDEEE6F0E01B
:10068000808181608083E1E8F0E010828081826077
:100690008083808181608083E0E8F0E080818160F8
:1006A0008083E1EBF0E0808184608083E0EBF0E028
:1006B000808181608083EAE7F0E0808184608083CC
:1006C0008081826080838081816080838081806876
:1006D00080831092C10008958E3008F08E5087708C
:1006E0002091000190E4299F90011124822B809396
:1006F0007C0080917A00806480937A0080917A00F7
:1007000086FDFCCF809178002091790090E0922BBB
:100710000895833081F028F4813099F08230A1F07F
:1007200008958730A9F08830B9F08430D1F48091F1
:1007300080008F7D03C0809180008F778093800040
:10074000089584B58F7702C084B58F7D84BD0895E8
:100750008091B0008F7703C08091B0008F7D80932F
:10076000B0000895CF93DF9390E0FC01E458FF4F71
:100770002491FC01E057FF4F8491882349F190E0D8
:10078000880F991FFC01E854FF4FA591B491825541
:100790009F4FFC01C591D4919FB7611108C0F89497
:1007A0008C91209582238C93888182230AC06230A9
:1007B00051F4F8948C91322F309583238C93888157
:1007C000822B888304C0F8948C91822B8C939FBFDA
:1007D000DF91CF9108950F931F93CF93DF931F92D3
:1007E000CDB7DEB7282F30E0F901E859FF4F8491EB
:1007F000F901E458FF4F1491F901E057FF4F0491BC
:100800000023C9F0882321F069830E94890369814C
:10081000E02FF0E0EE0FFF1FE255FF4FA591B491DE
:100820009FB7F8948C91611103C01095812301C08A
:10083000812B8C939FBF0F90DF91CF911F910F91D0
:100840000895CF93DF93282F30E0F901E859FF4F47
:100850008491F901E458FF4FD491F901E057FF4F1B
:10086000C491CC2391F081110E948903EC2FF0E018
:10087000EE0FFF1FEC55FF4FA591B4912C912D2346
:1008800081E090E021F480E002C080E090E0DF9120
:10089000CF910895CF92DF92EF92FF920F931F9323
:1008A000CF93DF937C016A01EB0100E010E00C15AF
:1008B0001D0571F06991D701ED91FC910190F081D6
:1008C000E02DC7010995892B19F00F5F1F4FEFCF5E
:1008D000C801DF91CF911F910F91FF90EF90DF90B2
:1008E000CF9008956115710581F0DB010D90002016
:1008F000E9F7AD0141505109461B570BDC01ED9161
:10090000FC910280F381E02D099480E090E008954D
:100910000C947204DC01ED91FC910190F081E02DCA
:1009200009948F929F92AF92BF92CF92DF92EF92F3
:10093000FF920F931F93CF93DF93CDB7DEB7A197AD
:100940000FB6F894DEBF0FBECDBF7C01C42EE52FDD
:10095000CB01D22E19A221E02D1510F02AE0D22EC3
:100960008E010F5D1F4F8D2C912CA12CB12C6C2D65
:100970007E2FA50194010E9451088C2DD29E8019D2
:100980001124015011098A3014F4805D01C0895C82
:10099000F8018083211531054105510521F0C22E52
:1009A000E32FCA01E4CFB801C7010E947204A196E7
:1009B0000FB6F894DEBF0FBECDBFDF91CF911F9170
:1009C0000F91FF90EF90DF90CF90BF90AF909F90EE
:1009D0008F900895CF92DF92EF92FF920F931F9323
:1009E000CF93DF93EC016A017B012115310579F486
:1009F000E881F9810190F081E02D642FDF91CF91A2
:100A00001F910F91FF90EF90DF90CF9009942A30C3
:100A10003105E9F477FF1AC06DE20E948A048C0167
:100A200044275527BA014C195D096E097F092AE050
:100A3000CE010E949104800F911FDF91CF911F91F1
:100A40000F91FF90EF90DF90CF9008952AE0B701CB
:100A5000A601CE01DF91CF911F910F91FF90EF90F2
:100A6000DF90CF900C9491044F925F926F927F929F
:100A70008F929F92AF92BF92CF92DF92EF92FF92AE
:100A80000F931F93CF93DF93EC016A017B01B22E8A
:100A90009A01AB01C701B6010E944D08882319F0E5
:100AA00061E371E027C026013701E89477F82FEF62
:100AB0003FEF4FE75FE7C301B2010E944D0881118C
:100AC0000DC02FEF3FEF4FE75FE7C301B2010E9478
:100AD000970618161CF465E371E00CC02FEF3FEF8A
:100AE0004FE75FE4C701B6010E94E6071816ACF4B1
:100AF00069E371E0CE01DF91CF911F910F91FF90DB
:100B0000EF90DF90CF90BF90AF909F908F907F90AD
:100B10006F905F904F900C9472042FEF3FEF4FE770
:100B20005FECC701B6010E94970687FDE1CF20E088
:100B300030E0A901C701B6010E94970687FF0AC0ED
:100B40006DE2CE010E948A048C01F7FAF094F7F866
:100B5000F09402C000E010E0A12C60E070E080E0C2
:100B60009FE3AB1441F020E030E040E251E40E940A
:100B70009B06A394F6CF9B01AC01C701B6010E946E
:100B800033066B017C010E9408072B013C010E9487
:100B900034079B01AC01C701B6010E9432066B010C
:100BA0007C012AE0B301A201CE010E949104080F4A
:100BB000191FBB2039F06DE371E0CE010E94720471
:100BC000080F191F7B2C772041F120E030E040E234
:100BD00051E4C701B6010E94EA076B017C010E9443
:100BE00003074B01AA2497FCA094BA2C2AE030E01A
:100BF000B501A401CE010E94EA04080F191FC50126
:100C0000B4010E9436079B01AC01C701B6010E94E6
:100C100032066B017C017A94D6CFC801DF91CF9167
:100C20001F910F91FF90EF90DF90CF90BF90AF900A
:100C30009F908F907F906F905F904F9008950C944D
:100C4000340508950E9431030E9421060E948C0001
:100C5000C0E0D0E00E94A1002097E1F30E940000D4
:100C6000F9CF08955058BB27AA270ED075C166D179
:100C700030F06BD120F031F49F3F11F41EF45BC1D2
:100C80000EF4E095E7FB51C1E92F77D180F3BA1755
:100C9000620773078407950718F071F49EF58FC1FA
:100CA0000EF4E0950B2EBA2FA02D0B01B901900187
:100CB0000C01CA01A0011124FF27591B99F0593FCB
:100CC00050F4503E68F11A16F040A22F232F342F13
:100CD0004427585FF3CF469537952795A795F04061
:100CE0005395C9F77EF41F16BA0B620B730B840B76
:100CF000BAF09150A1F0FF0FBB1F661F771F881F2E
:100D0000C2F70EC0BA0F621F731F841F48F4879585
:100D100077956795B795F7959E3F08F0B3CF939574
:100D2000880F08F09927EE0F979587950895D9D0E9
:100D300008F481E008950CD00FC107D140F0FED037
:100D400030F021F45F3F19F0F0C0511139C1F3C008
:100D500014D198F39923C9F35523B1F3951B550B7F
:100D6000BB27AA2762177307840738F09F5F5F4F7E
:100D7000220F331F441FAA1FA9F333D00E2E3AF0BF
:100D8000E0E830D091505040E695001CCAF729D0D9
:100D9000FE2F27D0660F771F881FBB1F2617370728
:100DA0004807AB07B0E809F0BB0B802DBF01FF2758
:100DB00093585F4F2AF09E3F510568F0B6C000C1BE
:100DC0005F3FECF3983EDCF3869577956795B79592
:100DD000F7959F5FC9F7880F911D9695879597F9AD
:100DE0000895E1E0660F771F881FBB1F6217730726
:100DF0008407BA0720F0621B730B840BBA0BEE1F3B
:100E000088F7E095089504D06894B111D9C0089589
:100E1000BCD088F09F5790F0B92F9927B751A0F018
:100E2000D1F0660F771F881F991F1AF0BA95C9F77E
:100E300012C0B13081F0C3D0B1E00895C0C0672FB7
:100E4000782F8827B85F39F0B93FCCF3869577952E
:100E50006795B395D9F73EF4909580957095619517
:100E60007F4F8F4F9F4F0895E89409C097FB3EF442
:100E700090958095709561957F4F8F4F9F4F9923E7
:100E8000A9F0F92F96E9BB279395F6958795779565
:100E90006795B795F111F8CFFAF4BB0F11F460FF25
:100EA0001BC06F5F7F4F8F4F9F4F16C0882311F07D
:100EB00096E911C0772321F09EE8872F762F05C091
:100EC000662371F096E8862F70E060E02AF09A952C
:100ED000660F771F881FDAF7880F9695879597F921
:100EE0000895990F0008550FAA0BE0E8FEEF1616BB
:100EF0001706E807F907C0F012161306E407F5070E
:100F000098F0621B730B840B950B39F40A2661F081
:100F1000232B242B252B21F408950A2609F4A14024
:100F2000A6958FEF811D811D089597F99F6780E831
:100F300070E060E008959FEF80EC089500240A942B
:100F40001616170618060906089500240A941216A4
:100F50001306140605060895092E0394000C11F4D7
:100F6000882352F0BB0F40F4BF2B11F460FF04C084
:100F70006F5F7F4F8F4F9F4F089557FD9058440FDD
:100F8000551F59F05F3F71F04795880F97FB991FE8
:100F900061F09F3F79F087950895121613061406A5
:100FA000551FF2CF4695F1DF08C016161706180632
:100FB000991FF1CF86957105610508940895E8940D
:100FC000BB2766277727CB0197F908958ADF08F4B6
:100FD0008FEF08950BD0C0CFB1DF28F0B6DF18F047
:100FE000952309F0A2CFA7CF1124EACFC6DFA0F343
:100FF000959FD1F3950F50E0551F629FF001729FAE
:10100000BB27F00DB11D639FAA27F00DB11DAA1FCC
:10101000649F6627B00DA11D661F829F2227B00D19
:10102000A11D621F739FB00DA11D621F839FA00DA4
:10103000611D221F749F3327A00D611D231F849FF4
:10104000600D211D822F762F6A2F11249F5750404B
:101050008AF0E1F088234AF0EE0FFF1FBB1F661FE6
:10106000771F881F91505040A9F79E3F510570F09F
:101070005CCFA6CF5F3FECF3983EDCF38695779587
:101080006795B795F795E7959F5FC1F7FE2B880F9A
:10109000911D9695879597F9089523DF880B990BF5
:1010A0000895A1E21A2EAA1BBB1BFD010DC0AA1FA9
:1010B000BB1FEE1FFF1FA217B307E407F50720F0C1
:1010C000A21BB30BE40BF50B661F771F881F991F3C
:1010D0001A9469F760957095809590959B01AC0185
:1010E000BD01CF010895EE0FFF1F0590F491E02D93
:0610F0000994F894FFCF03
:1010F6000147726F75703320566F6C746D65746539
:101106007200563A20005620202020202020202041
:10111600202020202000000000008B024A040D0A37
:10112600006E616E00696E66006F7666002E0000C6
:00000001FF
