:100000000C945D000C9485000C9485000C94850084
:100010000C9485000C9485000C9485000C9485004C
:100020000C9485000C9485000C9485000C9485003C
:100030000C9485000C9485000C9485000C9485002C
:100040000C9466020C9485000C9485000C94850039
:100050000C9485000C9485000C9485000C9485000C
:100060000C9485000C94850000000008000201003B
:100070000003040700000000000000000102040863
:100080001020408001020408102001020408102002
:10009000040404040404040402020202020203032E
:1000A0000303030300000000250028002B000000CC
:1000B0000000240027002A00D90011241FBECFEF22
:1000C000D8E0DEBFCDBF11E0A0E0B1E0EEE4F0E1AA
:1000D00002C005900D92A433B107D9F721E0A4E343
:1000E000B1E001C01D92A535B207E1F710E0CAEBFF
:1000F000D0E004C02297FE010E942108C83BD1072E
:10010000C9F70E94CE050C9425080C94000020E04D
:1001100042E060E184E391E00E94A20140E060E0FF
:1001200084E391E00E94880161E071E084E391E062
:100130000C943404CF93DF9360E08EE00E94870339
:100140008EE00E944103EC0164E670E080E090E004
:100150000E94D30241E062E084E391E00E948801C2
:1001600061E171E084E391E00E943404BE018827DC
:1001700077FD8095982F0E94E20620E030E040EA6B
:1001800050E40E94960720E030EC4FE754E40E94D0
:100190004706AB01BC0122E030E084E391E00E941D
:1001A000CB0565E171E084E391E0DF91CF910C94A0
:1001B0003404CF92EF920F9382E0C82E93E0E92EA1
:1001C00004E025E04BE06CE084E391E00E94400213
:1001D0000F91EF90CF900895CF93DF93EC0160E003
:1001E0008E810E94C00381E090E00E94FB0261E0EA
:1001F0008E810E94C00381E090E00E94FB0260E0DB
:100200008E810E94C00384E690E0DF91CF910C9430
:10021000FB02EF92FF920F931F93CF93DF938C011A
:10022000C0E0D0E0E62EF12CB7010C2E02C075958F
:1002300067950A94E2F76170F801EC0FFD1F878162
:100240000E94C0032196C430D10571F7C801DF9127
:10025000CF911F910F91FF90EF900C94EC00EF92D3
:10026000FF920F931F93CF93DF938C01C0E0D0E0F8
:10027000E62EF12CB7010C2E02C0759567950A94F5
:10028000E2F76170F801EC0FFD1F87810E94C00347
:100290002196C830D10571F7C801DF91CF911F9128
:1002A0000F91FF90EF900C94EC001F93CF93DF938E
:1002B000EC01162F642F8C810E94C0038D818F3F2B
:1002C00019F060E00E94C0038F85612F84FF06C093
:1002D000CE01DF91CF911F910C942F0170E084E04B
:1002E000759567958A95E1F7CE010E940901612F06
:1002F000CE01DF91CF911F910C94090140E00C9445
:10030000550161E00E947E0180ED97E00C94FB02B4
:10031000443008F043E0FC012389421710F04FEF0E
:10032000420FFC01E40FF11D2489260F2068622F83
:100330000C947E01FC016089262F2460208B6C6068
:100340000C947E010F931F93CF93DF93EC01423007
:1003500018F08F8588608F874B8B1C8A80E48D8B8B
:100360006E8B70E0605C7F4F6F8B222329F04130F1
:1003700019F48F8584608F8761E08C810E948703E8
:100380008D818F3F19F061E00E94870361E08E81CB
:100390000E94870300E010E08F8584FF03C088E09F
:1003A00090E002C084E090E00817190754F4FE01C1
:1003B000E00FF11F61E087810E9487030F5F1F4FED
:1003C000EBCF80E593EC0E94FB0260E08C810E9401
:1003D000C00360E08E810E94C0038D818F3F19F0C1
:1003E00060E00E94C0036F8564FD1DC063E0CE0124
:1003F0000E94090184E991E10E94FB0263E0CE01C1
:100400000E94090184E991E10E94FB0263E0CE01B0
:100410000E94090186E990E00E94FB0262E0CE01A1
:100420000E94090116C06062CE010E947E0184E92B
:1004300091E10E94FB026F856062CE010E947E0105
:1004400086E990E00E94FB026F856062CE010E9407
:100450007E016F856062CE010E947E0184E0888B00
:10046000CE010E949A01CE010E94810182E0898B17
:1004700066E0CE01DF91CF911F910F910C947E0128
:10048000CF92EF920F93FC01138212828EE191E0E2
:100490009183808364838FEF8583468327830087DE
:1004A000E186C2861386148615861686178620E096
:1004B00041E060E1CF010F91EF90CF900C94A20149
:1004C00041E00E94550181E090E008951F920F9253
:1004D0000FB60F9211242F933F938F939F93AF9357
:1004E000BF9380914D0190914E01A0914F01B09129
:1004F000500130914C0123E0230F2D3720F4019659
:10050000A11DB11D05C026E8230F0296A11DB11D36
:1005100020934C0180934D0190934E01A0934F0185
:10052000B09350018091510190915201A0915301DB
:10053000B09154010196A11DB11D8093510190937A
:100540005201A0935301B0935401BF91AF919F9179
:100550008F913F912F910F900FBE0F901F90189584
:100560003FB7F8948091510190915201A0915301AD
:10057000B091540126B5A89B05C02F3F19F00196F4
:10058000A11DB11D3FBF6627782F892F9A2F620FBB
:10059000711D811D911D42E0660F771F881F991FF5
:1005A0004A95D1F70895CF92DF92EF92FF92CF93C1
:1005B000DF936B017C010E94B002EB01C114D104F6
:1005C000E104F10489F00E94DD050E94B0026C1B79
:1005D0007D0B683E734090F381E0C81AD108E108B2
:1005E000F108C851DC4FEACFDF91CF91FF90EF9037
:1005F000DF90CF9008958230910538F0880F991FD1
:10060000880F991F05970197F1F70895789484B59D
:10061000826084BD84B5816084BD85B5826085BDFE
:1006200085B5816085BDEEE6F0E0808181608083E4
:10063000E1E8F0E0108280818260808380818160C7
:100640008083E0E8F0E0808181608083E1EBF0E08E
:10065000808184608083E0EBF0E080818160808332
:10066000EAE7F0E08081846080838081826080831B
:100670008081816080838081806880831092C10046
:1006800008958E3008F08E5087702091000190E41C
:10069000299F90011124822B80937C0080917A0005
:1006A000806480937A0080917A0086FDFCCF8091EF
:1006B00078002091790090E0922B0895833081F0AA
:1006C00028F4813099F08230A1F008958730A9F0A4
:1006D0008830B9F08430D1F4809180008F7D03C0E0
:1006E000809180008F7780938000089584B58F7704
:1006F00002C084B58F7D84BD08958091B0008F774E
:1007000003C08091B0008F7D8093B0000895CF9397
:10071000DF9390E0FC01E458FF4F2491FC01E05787
:10072000FF4F8491882349F190E0880F991FFC01C5
:10073000E255FF4FA591B4918C559F4FFC01C59197
:10074000D4919FB7611108C0F8948C9120958223B1
:100750008C93888182230AC0623051F4F8948C9182
:10076000322F309583238C938881822B888304C019
:10077000F8948C91822B8C939FBFDF91CF91089539
:100780000F931F93CF93DF931F92CDB7DEB7282F20
:1007900030E0F901E859FF4F8491F901E458FF4F27
:1007A0001491F901E057FF4F04910023C9F0882309
:1007B00021F069830E945E036981E02FF0E0EE0F73
:1007C000FF1FEC55FF4FA591B4919FB7F8948C9102
:1007D000611103C01095812301C0812B8C939FBFB1
:1007E0000F90DF91CF911F910F910895CF92DF92DB
:1007F000EF92FF920F931F93CF93DF937C016A01D7
:10080000EB0100E010E00C151D0571F06991D701B6
:10081000ED91FC910190F081E02DC7010995892BA4
:1008200019F00F5F1F4FEFCFC801DF91CF911F91DC
:100830000F91FF90EF90DF90CF90089561157105B3
:1008400081F0DB010D900020E9F7AD014150510925
:10085000461B570BDC01ED91FC910280F381E02DEA
:10086000099480E090E008950C941E04DC01ED9161
:10087000FC910190F081E02D09948F929F92AF92AC
:10088000BF92CF92DF92EF92FF920F931F93CF937D
:10089000DF93CDB7DEB7A1970FB6F894DEBF0FBEDA
:1008A000CDBF7C01C42EE52FCB01D22E19A221E0B1
:1008B0002D1510F02AE0D22E8E010F5D1F4F8D2CCA
:1008C000912CA12CB12C6C2D7E2FA50194010E949E
:1008D000FD078C2DD29E80191124015011098A30F8
:1008E00014F4805D01C0895CF80180832115310515
:1008F0004105510521F0C22EE32FCA01E4CFB80112
:10090000C7010E941E04A1960FB6F894DEBF0FBE69
:10091000CDBFDF91CF911F910F91FF90EF90DF90AE
:10092000CF90BF90AF909F908F900895CF92DF921D
:10093000EF92FF920F931F93CF93DF93EC016A0125
:100940007B012115310579F4E881F9810190F0816D
:10095000E02D642FDF91CF911F910F91FF90EF90C9
:10096000DF90CF9009942A303105E9F477FF1AC05F
:100970006DE20E9436048C0144275527BA014C19B8
:100980005D096E097F092AE0CE010E943D04800FB7
:10099000911FDF91CF911F910F91FF90EF90DF900A
:1009A000CF9008952AE0B701A601CE01DF91CF9143
:1009B0001F910F91FF90EF90DF90CF900C943D042A
:1009C0004F925F926F927F928F929F92AF92BF925F
:1009D000CF92DF92EF92FF920F931F93CF93DF930B
:1009E000EC016A017B01B22E9A01AB01C701B6018D
:1009F0000E94F907882319F065E271E027C02601FB
:100A00003701E89477F82FEF3FEF4FE75FE7C30137
:100A1000B2010E94F90781110DC02FEF3FEF4FE7A0
:100A20005FE7C301B2010E94430618161CF469E295
:100A300071E00CC02FEF3FEF4FE75FE4C701B60155
:100A40000E9492071816ACF46DE271E0CE01DF91BE
:100A5000CF911F910F91FF90EF90DF90CF90BF90BB
:100A6000AF909F908F907F906F905F904F900C947D
:100A70001E042FEF3FEF4FE75FECC701B6010E9466
:100A8000430687FDE1CF20E030E0A901C701B601B0
:100A90000E94430687FF0AC06DE2CE010E94360421
:100AA0008C01F7FAF094F7F8F09402C000E010E03F
:100AB000A12C60E070E080E09FE3AB1441F020E007
:100AC00030E040E251E40E944706A394F6CF9B0138
:100AD000AC01C701B6010E94DF056B017C010E94D9
:100AE000B4062B013C010E94E0069B01AC01C7014A
:100AF000B6010E94DE056B017C012AE0B301A20170
:100B0000CE010E943D04080F191FBB2039F061E39C
:100B100071E0CE010E941E04080F191F7B2C772064
:100B200041F120E030E040E251E4C701B6010E940B
:100B300096076B017C010E94AF064B01AA2497FC2B
:100B4000A094BA2C2AE030E0B501A401CE010E94A5
:100B50009604080F191FC501B4010E94E2069B010B
:100B6000AC01C701B6010E94DE056B017C017A94DD
:100B7000D6CFC801DF91CF911F910F91FF90EF90D9
:100B8000DF90CF90BF90AF909F908F907F906F90AD
:100B90005F904F9008950C94E00408950E9406031E
:100BA0000E94CD050E948700C0E0D0E00E949A001C
:100BB0002097E1F30E940000F9CF08955058BB2719
:100BC000AA270ED075C166D130F06BD120F031F478
:100BD0009F3F11F41EF45BC10EF4E095E7FB51C199
:100BE000E92F77D180F3BA17620773078407950757
:100BF00018F071F49EF58FC10EF4E0950B2EBA2F0C
:100C0000A02D0B01B90190010C01CA01A001112412
:100C1000FF27591B99F0593F50F4503E68F11A16BE
:100C2000F040A22F232F342F4427585FF3CF46954F
:100C300037952795A795F0405395C9F77EF41F1671
:100C4000BA0B620B730B840BBAF09150A1F0FF0F3B
:100C5000BB1F661F771F881FC2F70EC0BA0F621F27
:100C6000731F841F48F4879577956795B795F79517
:100C70009E3F08F0B3CF9395880F08F09927EE0FA9
:100C8000979587950895D9D008F481E008950CD000
:100C90000FC107D140F0FED030F021F45F3F19F0D2
:100CA000F0C0511139C1F3C014D198F39923C9F39D
:100CB0005523B1F3951B550BBB27AA276217730762
:100CC000840738F09F5F5F4F220F331F441FAA1F16
:100CD000A9F333D00E2E3AF0E0E830D091505040D6
:100CE000E695001CCAF729D0FE2F27D0660F771F84
:100CF000881FBB1F261737074807AB07B0E809F066
:100D0000BB0B802DBF01FF2793585F4F2AF09E3FFA
:100D1000510568F0B6C000C15F3FECF3983EDCF3CC
:100D2000869577956795B795F7959F5FC9F7880F73
:100D3000911D9695879597F90895E1E0660F771FC5
:100D4000881FBB1F621773078407BA0720F0621B56
:100D5000730B840BBA0BEE1F88F7E095089504D04F
:100D60006894B111D9C00895BCD088F09F5790F015
:100D7000B92F9927B751A0F0D1F0660F771F881FC0
:100D8000991F1AF0BA95C9F712C0B13081F0C3D0DB
:100D9000B1E00895C0C0672F782F8827B85F39F079
:100DA000B93FCCF3869577956795B395D9F73EF41F
:100DB00090958095709561957F4F8F4F9F4F0895C7
:100DC000E89409C097FB3EF49095809570956195E5
:100DD0007F4F8F4F9F4F9923A9F0F92F96E9BB279B
:100DE0009395F695879577956795B795F111F8CF17
:100DF000FAF4BB0F11F460FF1BC06F5F7F4F8F4F82
:100E00009F4F16C0882311F096E911C0772321F077
:100E10009EE8872F762F05C0662371F096E8862F0F
:100E200070E060E02AF09A95660F771F881FDAF766
:100E3000880F9695879597F90895990F0008550F93
:100E4000AA0BE0E8FEEF16161706E807F907C0F050
:100E500012161306E407F50798F0621B730B840B58
:100E6000950B39F40A2661F0232B242B252B21F432
:100E700008950A2609F4A140A6958FEF811D811DD2
:100E8000089597F99F6780E870E060E008959FEF0C
:100E900080EC089500240A94161617061806090611
:100EA000089500240A9412161306140605060895E0
:100EB000092E0394000C11F4882352F0BB0F40F468
:100EC000BF2B11F460FF04C06F5F7F4F8F4F9F4FA8
:100ED000089557FD9058440F551F59F05F3F71F02A
:100EE0004795880F97FB991F61F09F3F79F0879591
:100EF0000895121613061406551FF2CF4695F1DF1A
:100F000008C0161617061806991FF1CF86957105A9
:100F1000610508940895E894BB2766277727CB01DD
:100F200097F908958ADF08F48FEF08950BD0C0CFAA
:100F3000B1DF28F0B6DF18F0952309F0A2CFA7CFD4
:100F40001124EACFC6DFA0F3959FD1F3950F50E0AF
:100F5000551F629FF001729FBB27F00DB11D639F6B
:100F6000AA27F00DB11DAA1F649F6627B00DA11D11
:100F7000661F829F2227B00DA11D621F739FB00DB7
:100F8000A11D621F839FA00D611D221F749F332727
:100F9000A00D611D231F849F600D211D822F762FC0
:100FA0006A2F11249F5750408AF0E1F088234AF0BD
:100FB000EE0FFF1FBB1F661F771F881F9150504009
:100FC000A9F79E3F510570F05CCFA6CF5F3FECF3D1
:100FD000983EDCF3869577956795B795F795E795F5
:100FE0009F5FC1F7FE2B880F911D9695879597F906
:100FF000089523DF880B990B0895A1E21A2EAA1BEE
:10100000BB1BFD010DC0AA1FBB1FEE1FFF1FA217B8
:10101000B307E407F50720F0A21BB30BE40BF50BB5
:10102000661F771F881F991F1A9469F7609570953E
:10103000809590959B01AC01BD01CF010895EE0F05
:0E104000FF1F0590F491E02D0994F894FFCF66
:10104E0001666972737420566F6C746D6574657287
:10105E0000563A2000566F6C7400000000006002CB
:10106E00F6030D0A006E616E00696E66006F76669D
:04107E00002E000040
:107E0000112484B714BE81FFF0D085E080938100F7
:107E100082E08093C00088E18093C10086E0809377
:107E2000C20080E18093C4008EE0C9D0259A86E02C
:107E300020E33CEF91E0309385002093840096BBD3
:107E4000B09BFECF1D9AA8958150A9F7CC24DD24C4
:107E500088248394B5E0AB2EA1E19A2EF3E0BF2EE7
:107E6000A2D0813461F49FD0082FAFD0023811F036
:107E7000013811F484E001C083E08DD089C08234E0
:107E800011F484E103C0853419F485E0A6D080C0E4
:107E9000853579F488D0E82EFF2485D0082F10E0AE
:107EA000102F00270E291F29000F111F8ED06801E7
:107EB0006FC0863521F484E090D080E0DECF843638
:107EC00009F040C070D06FD0082F6DD080E0C81688
:107ED00080E7D80618F4F601B7BEE895C0E0D1E017
:107EE00062D089930C17E1F7F0E0CF16F0E7DF06D8
:107EF00018F0F601B7BEE89568D007B600FCFDCFD4
:107F0000A601A0E0B1E02C9130E011968C91119780
:107F100090E0982F8827822B932B1296FA010C0160
:107F200087BEE89511244E5F5F4FF1E0A038BF0790
:107F300051F7F601A7BEE89507B600FCFDCF97BE46
:107F4000E89526C08437B1F42ED02DD0F82E2BD052
:107F50003CD0F601EF2C8F010F5F1F4F84911BD097
:107F6000EA94F801C1F70894C11CD11CFA94CF0C13
:107F7000D11C0EC0853739F428D08EE10CD085E9AC
:107F80000AD08FE07ACF813511F488E018D01DD067
:107F900080E101D065CF982F8091C00085FFFCCF94
:107FA0009093C60008958091C00087FFFCCF809118
:107FB000C00084FD01C0A8958091C6000895E0E648
:107FC000F0E098E1908380830895EDDF803219F02E
:107FD00088E0F5DFFFCF84E1DECF1F93182FE3DFCA
:107FE0001150E9F7F2DF1F91089580E0E8DFEE27F6
:047FF000FF270994CA
:027FFE00040479
:0400000300007E007B
:00000001FF
