:100000000C9434000C9451000C9451000C94510049
:100010000C9451000C9451000C9451000C9451001C
:100020000C9451000C9451000C9451000C9451000C
:100030000C9451000C9451000C9451000C945100FC
:100040000C9471000C9451000C9451000C945100CC
:100050000C9451000C9451000C9451000C945100DC
:100060000C9451000C94510011241FBECFEFD8E026
:10007000DEBFCDBF11E0A0E0B1E0E8EAF2E002C0EF
:1000800005900D92A431B107D9F721E0A4E1B1E0C8
:1000900001C01D92AE31B207E1F70E9442010C94FB
:1000A00052010C9400008FE78AB90895E091140181
:1000B000F0E0EE0FFF1FE050FF4F80818BB9809181
:1000C00014018F5F8093140164EF71E080E090E091
:1000D0000E94DE00809114018A3011F41092140104
:1000E00008951F920F920FB60F9211242F933F93F2
:1000F0008F939F93AF93BF938091160190911701B7
:10010000A0911801B09119013091150123E0230F3E
:100110002D3720F40196A11DB11D05C026E8230F3F
:100120000296A11DB11D2093150180931601909395
:100130001701A0931801B093190180911A019091B1
:100140001B01A0911C01B0911D010196A11DB11DC3
:1001500080931A0190931B01A0931C01B0931D0181
:10016000BF91AF919F918F913F912F910F900FBEB3
:100170000F901F9018953FB7F89480911A019091B5
:100180001B01A0911C01B0911D0126B5A89B05C0C3
:100190002F3F19F00196A11DB11D3FBF6627782F93
:1001A000892F9A2F620F711D811D911D42E0660FEC
:1001B000771F881F991F4A95D1F70895CF92DF9234
:1001C000EF92FF92CF93DF936B017C010E94BB0003
:1001D000EB01C114D104E104F10489F00E94510142
:1001E0000E94BB006C1B7D0B683E734090F381E066
:1001F000C81AD108E108F108C851DC4FEACFDF91F5
:10020000CF91FF90EF90DF90CF900895789484B5D0
:10021000826084BD84B5816084BD85B5826085BD02
:1002200085B5816085BDEEE6F0E0808181608083E8
:10023000E1E8F0E0108280818260808380818160CB
:100240008083E0E8F0E0808181608083E1EBF0E092
:10025000808184608083E0EBF0E080818160808336
:10026000EAE7F0E08081846080838081826080831F
:100270008081816080838081806880831092C1004A
:10028000089508950E9406010E9441010E945300B2
:10029000C0E0D0E00E9456002097E1F30E940000E9
:0802A000F9CF0895F894FFCF97
:1002A8007E0030006D00790033005B005F00700055
:0402B8007F00FB00C8
:00000001FF
