:100000000C9434000C9451000C9451000C94510049
:100010000C9451000C9451000C9451000C9451001C
:100020000C9451000C9451000C9451000C9451000C
:100030000C9451000C9451000C9451000C945100FC
:100040000C9471000C9451000C9451000C945100CC
:100050000C9451000C9451000C9451000C945100DC
:100060000C9451000C94510011241FBECFEFD8E026
:10007000DEBFCDBF11E0A0E0B1E0E8EAF2E002C0EF
:1000800005900D92A431B107D9F721E0A4E1B1E0C8
:1000900001C01D92AE31B207E1F70E9442010C94FB
:1000A00052010C9400008FE78AB90895E091140181
:1000B000F0E0EE0FFF1FE050FF4F80818BB9809181
:1000C00014018F5F8093140164EF71E080E090E091
:1000D0000E94DE00809114018A3011F41092140104
:1000E00008951F920F920FB60F9211242F933F93F2
:1000F0008F939F93AF93BF938091160190911701B7
:10010000A0911801B09119013091150123E0230F3E
:100110002D3720F40196A11DB11D05C026E8230F3F
:100120000296A11DB11D2093150180931601909395
:100130001701A0931801B093190180911A019091B1
:100140001B01A0911C01B0911D010196A11DB11DC3
:1001500080931A0190931B01A0931C01B0931D0181
:10016000BF91AF919F918F913F912F910F900FBEB3
:100170000F901F9018953FB7F89480911A019091B5
:100180001B01A0911C01B0911D0126B5A89B05C0C3
:100190002F3F19F00196A11DB11D3FBF6627782F93
:1001A000892F9A2F620F711D811D911D42E0660FEC
:1001B000771F881F991F4A95D1F70895CF92DF9234
:1001C000EF92FF92CF93DF936B017C010E94BB0003
:1001D000EB01C114D104E104F10489F00E94510142
:1001E0000E94BB006C1B7D0B683E734090F381E066
:1001F000C81AD108E108F108C851DC4FEACFDF91F5
:10020000CF91FF90EF90DF90CF900895789484B5D0
:10021000826084BD84B5816084BD85B5826085BD02
:1002200085B5816085BDEEE6F0E0808181608083E8
:10023000E1E8F0E0108280818260808380818160CB
:100240008083E0E8F0E0808181608083E1EBF0E092
:10025000808184608083E0EBF0E080818160808336
:10026000EAE7F0E08081846080838081826080831F
:100270008081816080838081806880831092C1004A
:10028000089508950E9406010E9441010E945300B2
:10029000C0E0D0E00E9456002097E1F30E940000E9
:0802A000F9CF0895F894FFCF97
:1002A8007E0030006D00790033005B005F00700055
:0402B8007F00FB00C8
:107E0000112484B714BE81FFF0D085E080938100F7
:107E100082E08093C00088E18093C10086E0809377
:107E2000C20080E18093C4008EE0C9D0259A86E02C
:107E300020E33CEF91E0309385002093840096BBD3
:107E4000B09BFECF1D9AA8958150A9F7CC24DD24C4
:107E500088248394B5E0AB2EA1E19A2EF3E0BF2EE7
:107E6000A2D0813461F49FD0082FAFD0023811F036
:107E7000013811F484E001C083E08DD089C08234E0
:107E800011F484E103C0853419F485E0A6D080C0E4
:107E9000853579F488D0E82EFF2485D0082F10E0AE
:107EA000102F00270E291F29000F111F8ED06801E7
:107EB0006FC0863521F484E090D080E0DECF843638
:107EC00009F040C070D06FD0082F6DD080E0C81688
:107ED00080E7D80618F4F601B7BEE895C0E0D1E017
:107EE00062D089930C17E1F7F0E0CF16F0E7DF06D8
:107EF00018F0F601B7BEE89568D007B600FCFDCFD4
:107F0000A601A0E0B1E02C9130E011968C91119780
:107F100090E0982F8827822B932B1296FA010C0160
:107F200087BEE89511244E5F5F4FF1E0A038BF0790
:107F300051F7F601A7BEE89507B600FCFDCF97BE46
:107F4000E89526C08437B1F42ED02DD0F82E2BD052
:107F50003CD0F601EF2C8F010F5F1F4F84911BD097
:107F6000EA94F801C1F70894C11CD11CFA94CF0C13
:107F7000D11C0EC0853739F428D08EE10CD085E9AC
:107F80000AD08FE07ACF813511F488E018D01DD067
:107F900080E101D065CF982F8091C00085FFFCCF94
:107FA0009093C60008958091C00087FFFCCF809118
:107FB000C00084FD01C0A8958091C6000895E0E648
:107FC000F0E098E1908380830895EDDF803219F02E
:107FD00088E0F5DFFFCF84E1DECF1F93182FE3DFCA
:107FE0001150E9F7F2DF1F91089580E0E8DFEE27F6
:047FF000FF270994CA
:027FFE00040479
:0400000300007E007B
:00000001FF
